:100000000C9451010C9482010C9482010C94820195
:100010000C9482010C9482010C9482010C94820154
:100020000C9482010C9482010C9482010C94820144
:100030000C9482010C9482010C9482010C94820134
:100040000C9482010C9482010C9482010C94820124
:100050000C9482010C9482010C9482010C94D605BC
:100060000C9482010C9482010C9482010C94820104
:100070000C9482010C9482010C9482010C948201F4
:100080000C9482010C9482010C9482010C948201E4
:100090000C9482010C9482010C9482010C948201D4
:1000A0000C9482010C9482010C9482010C948201C4
:1000B0000C9482010C9482010C9482010C948201B4
:1000C0000C9482010C9482010C9482010C948201A4
:1000D0000C9482010C9482010C9482010C94820194
:1000E0000C9482010C9471030C94E7010C94B803F6
:1000F0000C94D5010C94D0030C94E8030C94DC030D
:100100000C94B0010C9447030C944D030C941B0306
:100110000C94BD010C94C7010C94DD010C94CB012F
:100120000C94C4030C9465030C94CF010C94E3016C
:100130000C94A8010C94E2010C949B030C94ED0226
:100140000C9483030C944C050C941A030C94A20198
:100150000C948F030C94AC010C94A7030C944103F2
:100160000C947A030C94B4010C94D9010C94F60805
:100170000C94C1010C94F4030C94B7010C94590332
:1001800000002100240027002A002D003000330049
:1001900001010000040107010A01000022002500FE
:1001A00028002B002E003100340002010000050160
:1001B00008010B01000020002300260029002C006C
:1001C0002F003200000100000301060109010505AE
:1001D0000505070508080808020202020A0A0808BD
:1001E00004040404010101010101010103030303EB
:1001F00003030303040707070C0C0C0C0C0C0C0C7A
:100200000202020206060606060606060B0B0B0B8A
:100210000B0B0B0B010210202008081020401020AF
:1002200040800201020108040201010204081020BA
:1002300040808040201008040201800402018040B8
:100240002010080402010804020101020408102021
:100250004080010204081020408000000A0B0209BF
:100260000C0D0E0807030401000000000000000050
:10027000000000000000000000000000000000007E
:10028000000000000000121110000000000000003B
:10029000000000000000000000000000000000005E
:1002A000F60811241FBECFEFD1E2DEBFCDBF00E0C4
:1002B0000CBF12E0A0E0B2E0E2E2F6E100E00BBF2A
:1002C00002C007900D92A83AB107D9F722E0A8EA38
:1002D000B2E001C01D92A33DB207E1F711E0C1E514
:1002E000D1E000E006C021970109802FFE010E94A5
:1002F000070BC035D10780E00807A9F70E94200648
:100300000C940F0B0C9400008150823108F05AC0FD
:10031000E82FF0E08827E057FE4F8F4F0C94070B33
:10032000B001B401A201A801AC01E201B701BD0115
:10033000C101C701CB01CF01D501D901E201DD0126
:10034000E301E701809180008F778093800008951A
:10035000809180008F7DF9CF80918000877FF5CFDD
:1003600084B58F7784BD089584B58F7DFBCF809150
:10037000B0008F778093B00008958091B0008F7D9A
:10038000F9CF809190008F778093900008958091AD
:1003900090008F7DF9CF80919000877FF5CF80917D
:1003A000A0008F778093A00008958091A0008F7D9A
:1003B000F9CF8091A000877FF5CF809120018F77C2
:1003C000809320010895809120018F7DF9CF809145
:1003D0002001877FF5CFCF93DF93282F30E0F901FD
:1003E000E65AFD4F8491F901EC5EFD4FD491F9017D
:1003F000E253FE4FC491CC23A1F081110E948401ED
:10040000EC2FF0E0EE0FFF1FEC54FE4FA591B491DE
:10041000EC91ED2381E090E009F480E0DF91CF9151
:10042000089580E090E0FACF1F93CF93DF93282FB9
:1004300030E0F901E65AFD4F8491F901EC5EFD4F81
:10044000D491F901E253FE4FC491CC23A9F0162FA9
:1004500081110E948401EC2FF0E0EE0FFF1FE656A1
:10046000FE4FA591B4918FB7F894EC91111108C08B
:10047000D095DE23DC938FBFDF91CF911F9108953C
:10048000DE2BF8CFCF93DF9390E0FC01EC5EFD4FC5
:10049000249182539E4FFC0184918823D1F090E0F7
:1004A000880F991FFC01E058FE4FA591B491FC0103
:1004B000E656FE4FC591D49161110EC09FB7F894D6
:1004C0008C91E22FE0958E238C932881E223E883A0
:1004D0009FBFDF91CF9108958FB7F894EC91E22BF5
:1004E000EC938FBFF6CF90917B00977F90937B002A
:1004F0008653806480937C0080917A00806480932E
:100500007A0080917A0086FDFCCF809178009091EE
:10051000790008953FB7F8948091B7029091B8029E
:10052000A091B902B091BA0226B5A89B05C02F3F91
:1005300019F00196A11DB11D3FBFBA2FA92F982F09
:100540008827BC01CD01620F711D811D911D42E004
:10055000660F771F881F991F4A95D1F708958F92CC
:100560009F92AF92BF92CF92DF92EF92FF924B0198
:100570005C010E948A026B017C010E948A026C1954
:100580007D098E099F09683E734081059105A8F396
:1005900021E0821A9108A108B10888EEC80E83E014
:1005A000D81EE11CF11C81149104A104B10429F7A7
:1005B000FF90EF90DF90CF90BF90AF909F908F9083
:1005C00008952FB7F8946091B3027091B4028091AE
:1005D000B5029091B6022FBF0895AF92BF92CF920D
:1005E000DF92EF92FF920F931F93CF93DF936C01F3
:1005F0007B018B01040F151FEB015E01AE18BF08D4
:10060000C017D10759F06991D601ED91FC91019085
:10061000F081E02DC6011995892B79F7C501DF918D
:10062000CF911F910F91FF90EF90DF90CF90BF90EF
:10063000AF900895089590E080E00895982FE82FF6
:10064000F0E0E65AFD4FE491E150E23108F0CCC011
:10065000F0E08827E15DFC4F8F4F0C94070B4103BE
:1006600047034D0359036503F40371037A038303BE
:100670008F039B03A703B803C403F403D003DC0375
:10068000E80384B5806884BD82E387BD089584B59E
:10069000806284BD82E388BD089580918000806877
:1006A0008093800082E390E090938900809388009B
:1006B00008958091800080628093800082E390E0C2
:1006C00090938B0080938A000895809180008860C9
:1006D0008093800082E390E090938D0080938C0063
:1006E00008958091B00080688093B00082E3809389
:1006F000B30008958091B00080628093B00082E3DF
:100700008093B40008958091900080688093900059
:1007100082E390E0909399008093980008958091EF
:10072000900080628093900082E390E090939B0021
:1007300080939A0008958091900088608093900043
:1007400082E390E090939D0080939C0008958091B7
:10075000A00080688093A0008091A0008F7B809390
:10076000A00082E390E09093A9008093A8000895F0
:100770008091A00080628093A00082E390E090933B
:10078000AB008093AA0008958091A00088608093B8
:10079000A00082E390E09093AD008093AC000895B8
:1007A0008091200180688093200182E390E0909303
:1007B000290180932801089580912001806280930F
:1007C000200182E390E090932B0180932A01089509
:1007D0008091200188608093200182E390E09093D3
:1007E0002D0180932C01089560E0892F0C94140250
:1007F000CF93DF93EC0160E08E810E94140261E0F0
:100800008E810E94140260E08E810E9414028BE8A7
:1008100091E00197F1F7DF91CF910895CF92DF92A8
:10082000EF92FF920F931F93CF93DF936C017C01A4
:1008300087E0E80EF11CD0E0C0E0062F10E0B80120
:100840000C2E02C0759567950A94E2F76170F70166
:1008500081917F010E9414022196C430D10579F75D
:10086000C601DF91CF911F910F91FF90EF90DF9024
:10087000CF900C94F803CF92DF92EF92FF920F93F8
:100880001F93CF93DF93EC01F62E642F8C810E948F
:1008900014028D818F3F19F060E00E9414020F2D29
:1008A00010E08F8584FF25C06E0187E0C80ED11C43
:1008B000F12CE12CB8010E2C02C0759567950A94B5
:1008C000E2F76170F60181916F010E941402FFEF5F
:1008D000EF1AFF0A88E0E816F10461F7CE01DF9114
:1008E000CF911F910F91FF90EF90DF90CF900C94DC
:1008F000F803B80184E0759567958A95E1F7CE0114
:100900000E940E046F2DCE01DF91CF911F910F91A8
:10091000FF90EF90DF90CF900C940E0440E0682F92
:100920008BEB92E00C943B0481E00E948E048BE3FD
:100930009FE10197F1F70895CF93DF93823029F477
:100940009091CA0298609093CA028093CE0210924E
:10095000CF0280E48093D00280E18093D10280E5D1
:100960008093D20261E08091BF020E944202809196
:10097000C0028F3F19F061E00E94420261E0809165
:10098000C1020E944202CBEBD2E09E012B5B3240BF
:100990008091CA0284FD0BC084E090E02196281764
:1009A000390744F461E08E810E944202EECF88E074
:1009B00090E0F4CF8BE39DE00197F1F760E0809148
:1009C000BF020E94140260E08091C1020E941402E2
:1009D0008091C0028F3F19F060E00E941402809164
:1009E000CA0284FD34C063E08BEB92E00E940E04E7
:1009F000CBE4D6E4CE010197F1F763E08BEB92E014
:100A00000E940E042197F1F763E08BEB92E00E94C5
:100A10000E0483E592E00197F1F762E08BEB92E040
:100A20000E940E048091CA0280620E948E0484E0BB
:100A30008093CB028CE00E948E040E94940482E09A
:100A40008093CC0286E0DF91CF910C948E0480627B
:100A50000E948E048BE496E40197F1F78091CA021C
:100A600080620E948E0483E592E00197F1F7809105
:100A7000CA0280620E948E04D5CF9091CE0269177F
:100A800010F06FEF690FE62FF0E0E554FD4F948909
:100A9000890F80680C948E0441E00E943B0481E041
:100AA00090E008958F929F92AF92BF920F931F9301
:100AB000CF93DF93CDB7DEB7A1970FB6F894DEBF23
:100AC0000FBECDBF19A2423008F44AE08E010F5D7F
:100AD0001F4F842E912CB12CA12CA50194010E94B2
:100AE000E50AE62FB901CA01EA3044F5E05DD80114
:100AF000EE938D01232B242B252B79F790E080E0BA
:100B0000109769F0FD0101900020E9F73197AF01DE
:100B10004A1B5B0BBD018BEB92E00E94ED02A1969C
:100B20000FB6F894DEBF0FBECDBFDF91CF911F91FE
:100B30000F91BF90AF909F908F900895E95CD7CFB1
:100B4000CF92DF92EF92FF926C01990FEE08FF08AF
:100B5000F7FE16C041E06DE28BEB92E00E943B0491
:100B600066277727CB016C197D098E099F094AE01A
:100B70000E9452050196FF90EF90DF90CF9008956C
:100B80004AE0C701B601FF90EF90DF90CF900C9440
:100B90005205FC0101900020E9F73197AF01481B95
:100BA000590BBC018BEB92E00C94ED021F920F925B
:100BB0000FB60F9211242F933F938F939F93AF9370
:100BC000BF938091B3029091B402A091B502B0910D
:100BD000B6023091B20223E0230F2D3758F501966B
:100BE000A11DB11D2093B2028093B3029093B40271
:100BF000A093B502B093B6028091B7029091B8026B
:100C0000A091B902B091BA020196A11DB11D8093C5
:100C1000B7029093B802A093B902B093BA02BF9101
:100C2000AF919F918F913F912F910F900FBE0F9099
:100C30001F90189526E8230F0296A11DB11DD2CF53
:100C4000789484B5826084BD84B5816084BD85B5A7
:100C5000826085BD85B5816085BD80916E008160B3
:100C600080936E0010928100809181008260809359
:100C7000810080918100816080938100809180005B
:100C80008160809380008091B10084608093B10086
:100C90008091B00081608093B0008091910082606B
:100CA0008093910080919100816080939100809168
:100CB00090008160809390008091A1008260809379
:100CC000A1008091A10081608093A1008091A0008B
:100CD00081608093A0008091210182608093210136
:100CE00080912101816080932101809120018160A8
:100CF0008093200180917A00846080937A008091B3
:100D00007A00826080937A0080917A00816080937B
:100D10007A0080917A00806880937A001092C100F6
:100D200060E082E00E94420260E083E00E944202B2
:100D300060E084E00E94420261E08EE10E94420293
:100D400061E08DE10E94420261E08FE10E94420277
:100D500061E08BE00E94420261E08CE00E9442026E
:100D600061E088E00E94420261E089E00E94420264
:100D700061E08AE00E94420282E00E949C048FE0CF
:100D800092E00E94C90568EE73E080E090E00E9466
:100D9000AF020E94940461E088E00E94420288E071
:100DA0000E941E0361E089E00E94420289E00E94E5
:100DB0001E030E94E1026093AD027093AE02809325
:100DC000AF029093B0028824839480E0282E80E0C4
:100DD000382E9924939486E30E947302EC0188E3F1
:100DE0000E947302BC01990F880B990B0E94C309E2
:100DF00020E030E048EC52E40E94780A20E030EC39
:100E00004FE754E40E9419092B013C0187E30E943B
:100E1000730283E00E94EB018C0182E00E94EB01EF
:100E20005C0184E00E94EB017C01AB28A1F1809180
:100E3000B102811130C00115110509F0A4C060E0B4
:100E40008BE00E9414020E94940460E080E00E9403
:100E50003D058EE192E00E94C90561E080E00E94BC
:100E60003D058BE292E00E94C90561E08DE10E94A0
:100E7000140261E08AE00E94140268EE73E080E0F0
:100E800090E00E94AF0260E08DE10E94140260E0F9
:100E90008AE00E9414020E94940480910202882336
:100EA000A9F00E94E1022091AD023091AE02409182
:100EB000AF025091B002621B730B840B950B693823
:100EC00073418105910510F01092020260E080E00C
:100ED0000E943D0587E30E9473028B3F91050CF051
:100EE0006FC061E08EE10E94140282E392E00E94F2
:100EF000C90564E670E080E090E00E94AF02809156
:100F00000202882399F060E08BE00E943D0587E4AF
:100F100092E00E94C905C301B2010E948B09CB0176
:100F20000E94A0058AE492E00E94C90520E030E01A
:100F3000A901C301B2010E94140918160CF447C09C
:100F40001092B10260E08BE00E94140260E08CE03D
:100F50000E94140260E08FE10E94140261E080E0D0
:100F60000E943D058CE492E00E94C90564E670E0B1
:100F700080E090E00E94AF022114310409F42BCFED
:100F80000E94000028CFE114F10409F484CF20E08E
:100F900030E0A901C301B2010E94730A18160CF0D7
:100FA0007ACF9092B102909202020E94E102609385
:100FB000AD027093AE028093AF029093B0026BCFFC
:100FC00060E08EE10E9414028CE392E090CFEF2863
:100FD000A9F41092B10260E08BE00E94140260E07C
:100FE00088E00E94140260E089E00E94140261E03F
:100FF00080E00E943D0589E592E0B6CF61E088E09F
:101000000E94140261E089E00E941402012BA9F4FD
:101010001092B10260E08BE00E94140261E08DE169
:101020000E94140261E08AE00E94140261E080E004
:101030000E943D0584E692E097CF60E08DE10E943A
:10104000140260E08AE00E94140220E030E040EAEE
:1010500050E4C301B2010E94140987FF59C00E94E5
:10106000E1020091A9021091AA022091AB023091F5
:10107000AC026B017C01C01AD10AE20AF30A9701A3
:101080008601043F11402105310580F06093A902DB
:101090007093AA028093AB029093AC026091A80275
:1010A00068256093A8028FE10E94140261E080E04D
:1010B0000E943D058FE692E00E94C90590920202CF
:1010C0000E94E1026093AD027093AE028093AF0282
:1010D0009093B002C301B2010E948B092B01809151
:1010E0000002909101028415950509F43FCF90927A
:1010F00002020E94E1026093AD027093AE028093FF
:10110000AF029093B00250920102409200022ECFA3
:1011100020E030E040E251E4C301B2010E94140932
:1011200087FF0BC061E08FE10E94140261E080E064
:101130000E943D0589E792E0BFCF60E08FE10E9409
:1011400014028091B102882309F441C0BE01DD0F71
:10115000880B990B0E94C30920E030E04AEF53E46A
:101160000E94780A20E030EC4FE754E40E9419090D
:101170006B017C0161E08BE00E94140220E030E012
:1011800048EC51E4C701B6010E94730A1816A4F492
:1011900061E08CE00E94140261E080E00E943D0565
:1011A000C701B6010E948B09CB010E94A00583E80C
:1011B00092E00E94C9058ECF60E08CE00E9414028C
:1011C00061E080E00E943D0580E992E0F2CF60E0BE
:1011D0008BE00E94140260E08CE00E94140261E047
:1011E00080E00E943D058BE992E0E3CFEBEBF2E07B
:1011F0001382128287E092E09183808386E1848368
:101200008FEF858387E1868388E1878389E1808703
:101210008AE181878BE1828713861486158616867C
:10122000178681E00C949C040E94FE0908F481E07A
:1012300008950E942D090C94390A0E94320A58F030
:101240000E942B0A40F029F45F3F29F00C94220AF7
:1012500051110C946D0A0C94280A0E944A0A68F3F2
:101260009923B1F3552391F3951B550BBB27AA275F
:1012700062177307840738F09F5F5F4F220F331F99
:10128000441FAA1FA9F335D00E2E3AF0E0E832D061
:1012900091505040E695001CCAF72BD0FE2F29D064
:1012A000660F771F881FBB1F261737074807AB0736
:1012B000B0E809F0BB0B802DBF01FF2793585F4FAB
:1012C0003AF09E3F510578F00C94220A0C946D0A76
:1012D0005F3FE4F3983ED4F3869577956795B7958D
:1012E000F7959F5FC9F7880F911D9695879597F998
:1012F0000895E1E0660F771F881FBB1F6217730711
:101300008407BA0720F0621B730B840BBA0BEE1F25
:1013100088F7E09508950E9492096894B1110C94A1
:101320006D0A08950E94520A88F09F5798F0B92FCD
:101330009927B751B0F0E1F0660F771F881F991F0A
:101340001AF0BA95C9F714C0B13091F00E946C0A36
:10135000B1E008950C946C0A672F782F8827B85F46
:1013600039F0B93FCCF3869577956795B395D9F762
:101370003EF490958095709561957F4F8F4F9F4F6C
:101380000895E89409C097FB3EF490958095709578
:1013900061957F4F8F4F9F4F9923A9F0F92F96E9C1
:1013A000BB279395F695879577956795B795F11136
:1013B000F8CFFAF4BB0F11F460FF1BC06F5F7F4FD3
:1013C0008F4F9F4F16C0882311F096E911C07723E5
:1013D00021F09EE8872F762F05C0662371F096E8EE
:1013E000862F70E060E02AF09A95660F771F881FBD
:1013F000DAF7880F9695879597F90895990F000861
:10140000550FAA0BE0E8FEEF16161706E807F907D6
:10141000C0F012161306E407F50798F0621B730B71
:10142000840B950B39F40A2661F0232B242B252BF2
:1014300021F408950A2609F4A140A6958FEF811D95
:10144000811D089597F99F6780E870E060E0089536
:101450009FEF80EC089500240A94161617061806CC
:101460000906089500240A941216130614060506A8
:101470000895092E0394000C11F4882352F0BB0F39
:1014800040F4BF2B11F460FF04C06F5F7F4F8F4F9C
:101490009F4F089557FD9058440F551F59F05F3FD7
:1014A00071F04795880F97FB991F61F09F3F79F086
:1014B00087950895121613061406551FF2CF469508
:1014C000F1DF08C0161617061806991FF1CF86958A
:1014D0007105610508940895E894BB27662777276E
:1014E000CB0197F908950E94FE0908F48FEF089543
:1014F0000E948B0A0C94390A0E942B0A38F00E9431
:10150000320A20F0952311F00C94220A0C94280A38
:1015100011240C946D0A0E944A0A70F3959FC1F33E
:10152000950F50E0551F629FF001729FBB27F00D91
:10153000B11D639FAA27F00DB11DAA1F649F6627E6
:10154000B00DA11D661F829F2227B00DA11D621F35
:10155000739FB00DA11D621F839FA00D611D221FEF
:10156000749F3327A00D611D231F849F600D211DD3
:10157000822F762F6A2F11249F5750409AF0F1F056
:1015800088234AF0EE0FFF1FBB1F661F771F881FBF
:1015900091505040A9F79E3F510580F00C94220ACB
:1015A0000C946D0A5F3FE4F3983ED4F386957795EB
:1015B0006795B795F795E7959F5FC1F7FE2B880F65
:1015C000911D9695879597F90895A1E21A2EAA1B69
:1015D000BB1BFD010DC0AA1FBB1FEE1FFF1FA217E3
:1015E000B307E407F50720F0A21BB30BE40BF50BE0
:1015F000661F771F881F991F1A9469F76095709569
:10160000809590959B01AC01BD01CF010895EE0F2F
:10161000FF1F881F8BBF0790F691E02D1994F89457
:02162000FFCFFA
:10162200FFFF01000000004C05ED021B031A0353EB
:10163200697374656D204261736C616469004B6506
:101642006D65722054616B696C6900446567696CF1
:1016520021004661723A4143494B20004661723A89
:101662004B4150414C4900593A00250059616B6980
:101672007420426974746921004B6170692041636E
:10168200696B21004B656D65722054616B210059B5
:10169200616B69743C2535210059616B69743C2585
:1016A20031300043204B6C696D613A4143494B0034
:1016B2004D6F746F723A4143494B004D6F746F72B4
:0816C2003A4B4150414C490034
:00000001FF
